S0130000426C696E6B696E674C45442E737265630E
S11300000C942A000C9434000C9434000C943400A6
S11300100C9434000C9434000C9434000C9434008C
S11300200C9434000C9434000C9434000C9434007C
S11300300C9434000C9434000C9434000C9434006C
S11300400C9434000C9434000C9434000C9434005C
S11300500C94340011241FBECFE5D4E0DEBFCDBF25
S11300600E9436000C944D000C94000081E087BB84
S113007088BB2FE33DE093E0215030409040E1F70E
S113008000C0000018BA2FE33DE093E02150304057
S11100909040E1F700C00000EBCFF894FFCFE2
S9030000FC
